:1000000018C027C026C03AC024C023C022C021C0C7
:1000100020C01FC01EC079C11CC01BC01AC019C09F
:1000200018C0C8C82607230124733D0621012201F8
:100030003C0111241FBECFE5D1E0DEBFCDBF20E0E3
:10004000A0E6B0E001C01D92A937B207E1F72AD2BD
:1000500072C4D6CFE199FECF90E09FBB8EBBE09AF1
:100060008DB30895E199FECFF8941CBA90E09FBB40
:100070008EBB6DBBE29AE19A789408951F920F921D
:100080000FB60F9211248F9380916F0081110AC0D7
:1000900080917000811106C086B38095877080932F
:1000A000720002C0109272008F910F900FBE0F90DD
:1000B0001F901895882331F093E09A95F1F700008E
:1000C0008150F8CFA8950895009749F0E7EAF1E646
:1000D0003197F1F700C00000A8950197F5CF08957A
:1000E000FF920F931F93CF93DF93F82E062F10E00C
:1000F000C42FD0E0D998FF2039F0C801E5DFD99AA4
:10010000CE01E2DFFA94F6CFDF91CF911F910F91EC
:10011000FF9008958FB980E48EB98BE18DB9769BFD
:10012000FDCF8FB10895EF92FF921F93CF93DF938E
:1001300000D0CDB7DEB7142FDB9869837A83EADF6E
:100140006981E62E7A81F72E160F1E1531F08FEF9A
:10015000E1DFF70181937F01F8CFDB9A0F900F90D9
:10016000DF91CF911F91FF90EF900895CF93DF9390
:100170001F92CDB7DEB7DB986983CCDF6981862F0C
:10018000C9DFDB9A0F90DF91CF910895EF92FF9234
:100190001F93CF93DF9300D0CDB7DEB7142FDB983A
:1001A00069837A83B7DF6981E62E7A81F72E160F8D
:1001B0001E1529F0F70181917F01ACDFF9CFDB9AA1
:1001C0000F900F90DF91CF911F91FF90EF900895C6
:1001D000DB98A0DFDB9A0895CF93C82F682F6E6756
:1001E00080E2C4DFC0FF04C060E787E2BFDFDA9AC5
:1001F000CF910895FF920F931F93CF93DF931F9298
:10020000CDB7DEB7482F162F60E787E24983AEDF10
:1002100081EEDEDF498164E770E080EAB7DFDA9AD9
:1002200001E08AE047DF8FEFD3DFF82E807311F40F
:100230000F5FB9F7DA98002321F141E064E770E03D
:1002400087E171DFF6FC04C08091740080FD15C069
:100250008FEF8093740041E064E770E080E663DF35
:1002600080917400813278F4811768F0412F64E73F
:1002700070E081E658DF80E009C0F4FE06C082E04D
:1002800005C084E003C083E001C081E00F90DF91EE
:10029000CF911F910F91FF900895CF93C82F809316
:1002A000740042E050E062E270E085E790E03AD30B
:1002B00043E064E770E08AE269DF43E064E770E00E
:1002C00080E364DF43E064E770E080E12CDF81E0FD
:1002D000909174009C1380E0CF9108951F93CF9369
:1002E000DF93182FDB9AC4E2D0E0FE0184913196AF
:1002F00064913CDF2296F0E0C233DF07B1F7612F53
:1003000085E2DF91CF911F9131CF1F920F920FB6EF
:100310000F9211242F933F934F938F939F9380912C
:1003200069008F5F8A3019F0809369000EC01092C7
:10033000690080916700882319F0815080936700DD
:10034000809168008F5F80936800809161008823AE
:1003500039F0D99A809161008150809361001BC06F
:1003600080916000882329F0D998809160008150A5
:1003700010C080916200882371F093E09093600038
:1003800091E090936100815080936200811103C0DD
:1003900085E08093600080916A00823038F420917B
:1003A0006E0090916D00291304C072C0833009F073
:1003B0006FC09091640091116BC09091700099236F
:1003C00061F08FEF890F80937000811161C087B356
:1003D00090917100892B87BB5BC090916F0099232E
:1003E00009F43EC08FEF890F80936F00811150C0D8
:1003F00097B3809171008095892387BB80917100AC
:10040000813071F490916A00911180E080936A00CC
:10041000882309F43DC080916D0080936E0038C040
:1004200020916D00823049F4215020936D00121606
:100430009CF081E080936D000FC02F5F20936D00D2
:1004400040917300332727FD3095842F90E0821769
:10045000930714F440936D0081E080936C0018C002
:1004600090916E00191624F08111D5CF81E009C05A
:100470008111FCCF80916D00981714F482E001C0C7
:1004800084E08093710082E08093700080936F001D
:100490009F918F914F913F912F910F900FBE0F9091
:1004A0001F90189580E886BD93E096BD80E285BFD9
:1004B00087B3887F87BB88B3887F88BB82E08ABB8D
:1004C00081E88BBBDB9A8AB38C638ABB90BF8DE0DB
:1004D00083BF89B7816089BF81E686BF83E0BADDCB
:1004E000809373008F3FD9F461B780E0BBDD65EE88
:1004F00081E0B8DD68E782E0B5DD87E080937300D6
:1005000067E083E0AFDD6EE184E0ACDD6AE085E0CA
:10051000A9DD60E08FE1A6DD60E086E0A3DD8FE18C
:1005200099DD882391F096DD80936D00482F552743
:1005300047FD50952091730030E0241735072CF0CB
:1005400080936E0081E080936B0085E083DD809373
:10055000670086E07FDD809378008BB780628BBF79
:1005600080B5876080BD88E181BD8EE081BD7894D3
:1005700041E061E081E0B4DD82E06CDDAFDE81E08E
:1005800069DD8BDE811105C044E162E381E0A8DD15
:10059000F6CF80E021DEC1E0DEE11EEE03E08895CB
:1005A000A89580917200882309F4F4C080917200AC
:1005B00080FF1BC080916A00882349F010926A0076
:1005C00080916400882379F0109264000CC082E06E
:1005D00080936A0010926F001092700087B3897F39
:1005E00087BB10926700C093660080916A008111FA
:1005F0005AC08091720081FF1DC080917800893FB0
:10060000CCF0815080937800F89480916E009091A6
:100610006D0082300CF0815080936E00923044F473
:1006200090936D0078946091780086E01BDD02C0A5
:100630009150F6CF8091720082FF96C08091780031
:1006400087300CF091C08F5F80937800F894809190
:10065000730090E040916E0050916D0021E0652F95
:100660002223E1F0242F332727FD3095281739075F
:100670000CF44F5F5F5F262F332727FD3095281737
:10068000390754F040936E0060936D007894609148
:10069000780086E0E7DC68C020E0E1CF40936E00A0
:1006A00050936D00F3CF90916400992379F180917C
:1006B000720081FF05C080916D00815080936D00B4
:1006C0008091720082FF05C080916D008F5F8093E2
:1006D0006D0020916D0012161CF0C0936D000CC0CF
:1006E00040917300332727FD3095842F90E08217C7
:1006F000930714F440936D0045E065E080916D0030
:10070000EFDCD0936700C0936C002EC0823061F59F
:1007100080917200867041F180916F00811124C038
:1007200080917000811120C08FE194DC8823E1F07A
:10073000D99A8AE090E0C8DC809172008823A1F009
:10074000A8958091720081FFF7CF8091720082FF9F
:10075000F3CFC093640042E062E085E0C1DC8EE14B
:1007600090E0B2DCD09367008BE49DE10197F1F754
:1007700000C0000086B390E080959095877099271F
:10078000892B11F0A895F6CF8BE49DE10197F1F745
:1007900000C0000080916C00882391F18FE15ADC49
:1007A000F82E882359F18F2D55DC60916D00482F6C
:1007B00050E0262F332727FD309542175307F1F0DD
:1007C0008F2D50DC8F2D46DC482F50E020916D009E
:1007D000332727FD30954217530781F042E062E04E
:1007E0008AE07EDC10936300F3946F2D8FE13ADC96
:1007F000F110D9CF42E062E08AE072DC10926C0026
:10080000809167008111CBCE80916400811187C0F7
:1008100020916A00223028F080916600813009F032
:100820007BC080916F00811177C080917000811131
:1008300073C0809163008E3EA1F08091650090E0CE
:1008400035E0880F991F3A95E1F7223011F420E145
:1008500001C020E0909178009F70982B922B90938C
:100860006300809163008093740064E081E0C2DCE7
:1008700080936500882329F08093620084E0EADB9E
:100880003FC080917400909175008F3E9D4F51F450
:100890006091770080917600E5DB42E062E087E0DE
:1008A0001FDCECCF80916B00811109C08091730037
:1008B00080936D00C0936E00C0936B001FC0F894CE
:1008C0002091780080917600280F20936E001216F8
:1008D0001CF010926E0011C080916A00811100938B
:1008E0006A0040917300332727FD3095842F90E0F4
:1008F0008217930714F440936E00789480917700E8
:100900008093670080916500823008F048CE109295
:1009100066001092630043CEC093670040CE1092F1
:1009200064003DCEFB01DC0102C005900D924150F8
:0A0930005040D8F70895F894FFCF67
:00000001FF
