:1000000018C032C031C045C02FC02EC02DC02CC07A
:100010002BC02AC029C07BC127C026C025C024C050
:1000200023C0C8C82607230124333D06210122012D
:100030003C0111241FBECFE5D1E0DEBFCDBF10E0F3
:10004000A0E6B0E0E4EBF7E002C005900D92A23626
:10005000B107D9F720E0A2E6B0E001C01D92A637B3
:10006000B207E1F7DAD1A4C3CBCFE199FECF90E09C
:100070009FBB8EBBE09A8DB30895E199FECFF894B3
:100080001CBA90E09FBB8EBB6DBBE29AE19A78945C
:1000900008951F920F920FB60F9211248F938091A3
:1000A0006B0081110AC080916C00811106C086B37B
:1000B0008095877080936E0002C010926E008F91C1
:1000C0000F900FBE0F901F901895882331F093E08A
:1000D0009A95F1F700008150F8CFA8950895009700
:1000E00049F0E7EAF1E63197F1F700C00000A89582
:1000F0000197F5CF0895FF920F931F93CF93DF934E
:10010000F82E062F10E0C42FD0E0D998FF2039F048
:10011000C801E5DFD99ACE01E2DFFA94F6CFDF918C
:10012000CF911F910F91FF9008958FB980E48EB900
:100130008BE18DB9769BFDCF8FB10895EF92FF9241
:100140001F93CF93DF9300D0CDB7DEB7142FDB988A
:1001500069837A83EADF6981E62E7A81F72E160FAA
:100160001E1531F08FEFE1DFF70181937F01F8CFAA
:10017000DB9A0F900F90DF91CF911F91FF90EF903E
:100180000895CF93DF931F92CDB7DEB7DB986983D5
:10019000CCDF6981862FC9DFDB9A0F90DF91CF9189
:1001A0000895EF92FF921F93CF93DF9300D0CDB7C6
:1001B000DEB7142FDB9869837A83B7DF6981E62E77
:1001C0007A81F72E160F1E1529F0F70181917F0114
:1001D000ACDFF9CFDB9A0F900F90DF91CF911F9199
:1001E000FF90EF900895DB98A0DFDB9A0895CF93FE
:1001F000C82F682F6E6780E2C4DFC0FF04C060E7CD
:1002000087E2BFDFDA9ACF9108950F931F93CF93C0
:10021000DF931F92CDB7DEB7482F062F60E787E246
:100220004983AFDF81EEDFDF498161E770E080EA7B
:10023000B8DFDA9A11E08AE048DF8FEFD4DF982F39
:10024000907311F41F5FB9F7DA981123D1F0182FCA
:10025000107184FD18C086FF18C08FEF8093710065
:1002600041E061E770E080E669DF809171008132F2
:1002700070F4801760F0402F61E770E081E65EDF88
:1002800007C014E005C011E003C012E001C013E094
:10029000812F0F90DF91CF911F910F910895CF93F0
:1002A000C82F8093710042E050E062E270E082E784
:1002B00090E075D243E061E770E08AE272DF43E0EC
:1002C00061E770E080E36DDF43E061E770E080E1CB
:1002D00035DF81E0909171009C1380E0CF9108950B
:1002E0001F93CF93DF93182FDB9AC4E2D0E0FE0177
:1002F00084913196649145DF2296F0E0C233DF07A6
:10030000B1F7612F85E2DF91CF911F913ACF1F9214
:100310000F920FB60F9211242F933F934F938F9309
:100320009F93809166008F5F809366008A3049F4C6
:100330001092660080916100882319F081508093AB
:10034000610080916A0090917000891709F45BC088
:1003500020916C00222361F08FEF820F80936C005C
:10036000811151C087B390916D00892B87BB4BC021
:1003700020916B002223B9F18FEF820F80936B00E5
:10038000811141C097B380916D008095892387BB0F
:1003900080916D00813029F480916A008093700013
:1003A0000BC090917000823011F4915003C08430E2
:1003B00019F49F5F909370002091700027FF03C095
:1003C000109270000CC040916F00332727FD3095CC
:1003D000842F90E08217930714F44093700081E01B
:1003E0008093690010C0811102C081E005C08917A7
:1003F00014F482E001C084E080936D0082E0809379
:100400006C0080936B009F918F914F913F912F9142
:100410000F900FBE0F901F90189580E886BD93E057
:1004200096BD80E285BF87B3887F87BB88B3887F0E
:1004300088BB82E08ABB81E88BBB8AB38C638ABBB2
:1004400090BF8DE083BF89B7816089BF81E686BF99
:1004500083E00BDE80936F008F3F91F461B780E003
:100460000CDE61E880E809DE60E081E806DE67E036
:1004700083E003DE65EE81E000DE68E782E0FDDD1B
:1004800080E8F3DDF2DD8093700082E0EEDD28DFAE
:100490008BB780628BBF80B5876080BD88E181BDEE
:1004A0008EE081BD789481E0E0DDF9DE811105C048
:1004B00044E162E381E01FDEF6CF80E098DE11E0E8
:1004C0000EEEC1E0DEE18895A89580916900882351
:1004D00081F180E8CADDF82E8F2DC7DD60917000B4
:1004E000482F50E0262F332727FD3095421753071A
:1004F000F1F08F2DC2DD8F2DB8DD482F50E0209117
:100500007000332727FD30954217530781F042E0F2
:1005100062E08AE0F0DD00936200F39421F460E091
:1005200080E0ABDD04C06F2D80E8A7DDD5CF109251
:10053000690080916E00882309F4D0C080916E001C
:1005400080FF0EC080916700812780936700811132
:1005500005C080916300811110926300C093650013
:1005600080916700811150C080916E0081FF19C099
:1005700080916800893FACF0815080936800F894C6
:100580009091700080916A0018160CF48150191631
:1005900034F09093700080936A00789402C0915078
:1005A000F8CF80916E0082FF8BC080916800873009
:1005B0000CF086C08F5F80936800F89480916F0084
:1005C00090E040916A005091700021E0652F222355
:1005D000C1F0242F332727FD3095281739070CF455
:1005E0004F5F5F5F262F332727FD30952817390788
:1005F00034F06093700040936A00789461C020E00A
:10060000E5CF50937000F7CF80916300882379F194
:1006100080916E0081FF05C08091700081508093B1
:10062000700080916E0082FF05C0809170008F5F26
:10063000809370002091700027FF03C0109270001B
:100640000CC040916F00332727FD3095842F90E038
:100650008217930714F44093700045E065E08091A1
:10066000700049DDD0936100C093690029C080917A
:100670006E0081FD04C080916E0082FF21C08091D8
:100680006B0081111DC080916C00811119C0D99A35
:1006900080916E008823A1F0A89580916E0081FF63
:1006A000F7CF80916E0082FFF3CFC093630042E0EA
:1006B00062E085E020DD8EE190E011DDD093610005
:1006C000D99A80916E00882311F0A895FACF8BE417
:1006D0009DE10197F1F700C00000D9988091610079
:1006E0008111F1CE80916300811156C08091670025
:1006F000882329F090916500913009F04AC09091CB
:10070000620091110EC0909164009295990F907EB5
:100710008295807F892B909168009F70892B8093B0
:100720006200809162008093710065E081E06DDD80
:1007300080936400882341F043E063E0DCDC84E0E4
:1007400094DC80936100BFCE10926200F8942091F7
:10075000680080917300280F20936A0027FF03C070
:1007600010926A000CC040916F00332727FD30952E
:10077000842F90E08217930714F440936A007894D2
:1007800080917500809361008093600010926500F5
:100790009ACEC093610097CE1092630094CEFB0175
:1007A000DC0102C005900D9241505040D8F70895E9
:0407B000F894FFCFEB
:0207B4000A0138
:00000001FF
