:1000000019C033C032C046C077C12FC02EC02DC02A
:100010002CC02BC02AC029C028C027C026C025C09C
:1000200024C0C8C83D063C01230124412607210104
:100030002201310511241FBECFE5D1E0DEBFCDBFC7
:1000400010E0A0E6B0E0E2E5F6E002C005900D9217
:10005000A236B107D9F720E0A2E6B0E001C01D92B8
:10006000A637B207E1F7C3D1F2C2CACFE199FECFFA
:1000700090E09FBB8EBBE09A8DB30895E199FECFCF
:10008000F8941CBA90E09FBB8EBB6DBBE29AE19ADC
:10009000789408951F920F920FB60F9211248F93A8
:1000A00080916B00882321F080916C00882321F0DF
:1000B00086B3877080936E008F910F900FBE0F9064
:1000C0001F901895882331F09AE19A95F1F700C0B6
:1000D0008150F8CF0895009759F02FEF30E742E0B4
:1000E000215030404040E1F700C000000197F3CFBD
:1000F0000895FF920F931F93CF93DF93F82E062F4F
:1001000010E0C42FD0E0D998FF2039F0C801E3DF18
:10011000D99ACE01E0DFFA94F6CFDF91CF911F910B
:100120000F91FF9008958FB980E48EB98BE18DB95E
:10013000769BFDCF8FB10895EF92FF921F93CF93DF
:10014000DF9300D0CDB7DEB7142FDB9869837A83B5
:10015000EADF6981E62E7A81F72E160F1E1531F03F
:100160008FEFE1DFF70181937F01F8CFDB9A0F90EA
:100170000F90DF91CF911F91FF90EF900895CF9353
:10018000DF931F92CDB7DEB7DB986983CCDF69813F
:10019000862FC9DFDB9A0F90DF91CF910895EF9200
:1001A000FF921F93CF93DF9300D0CDB7DEB7142F0C
:1001B000DB9869837A83B7DF6981E62E7A81F72E2F
:1001C000160F1E1529F0F70181917F01ACDFF9CFE1
:1001D000DB9A0F900F90DF91CF911F91FF90EF90DE
:1001E0000895DB98A0DFDB9A0895CF93C82F682F7E
:1001F0006E6080E2C4DFC0FF04C060E787E2BFDF5B
:10020000DA9ACF9108950F931F93CF93DF93EC0168
:10021000162F042F60E787E2B2DF81EEE2DF412F85
:10022000BE0180EABCDFDA9A11E08AE04BDF8FEF93
:10023000D8DF982F907311F41F5FB9F7DA98112364
:10024000B1F0182F107184FD14C086FF14C08FEF19
:10025000888341E0BE0180E66FDF8881813268F4E7
:10026000801758F0402FBE0181E666DF07C012E01C
:1002700005C013E003C011E001C014E0812FDF913D
:10028000CF911F910F910895CF93C82F8093710044
:1002900042E050E062E270E082E790E0CFD143E0DC
:1002A00061E770E08AE27BDF43E061E770E080E3D2
:1002B00076DF43E061E770E080E13EDF81E090912E
:1002C00071009C1380E0CF9108951F93CF93DF932B
:1002D000182FDB9AC4E2D0E0FE018491319664913C
:1002E0004EDF2296F0E0C433DF07B1F7612F85E2DD
:1002F000DF91CF911F9143CF1F920F920FB60F92B4
:1003000011242F938F939F9388E181BD8BE481BD4E
:10031000809165008F5F80936500883049F410926A
:10032000650080916000882319F0815080936000FF
:1003300080916600811153C080916A009091700095
:10034000891709F44CC020916C00222361F08FEFD3
:10035000820F80936C00811142C087B390916D0031
:10036000892B87BB3CC020916B00222341F18FEF8A
:10037000820F80936B00811132C097B380916D0022
:100380008095892387BB80916D00813029F480910D
:100390006A00809370000BC090917000823011F45D
:1003A000915003C0843019F49F5F90937000809146
:1003B00070008093620081E08093690010C0811119
:1003C00002C081E005C0891714F482E001C084E016
:1003D00080936D0082E080936C0080936B009F910E
:1003E0008F912F910F900FBE0F901F90189580E85E
:1003F00086BD16BC80E285BF87B3887F87BB88B384
:10040000887F88BB82E08ABB81E88BBB8AB38C6320
:100410008ABB83E02BDE80936F008F3F61F461B76E
:1004200080E02CDE66E083E029DE61E880E826DEFD
:1004300060E081E823DE80E019DE81BF80E816DE1F
:1004400015DE8093700082E011DE3FDF8BB78062A3
:100450008BBF80B5876080BD88E181BD8BE481BDA5
:10046000789481E003DE10DF811105C044E162E38E
:1004700081E03FDEF6CF80E0B8DED1E018E801E0B1
:10048000889580916900882329F180E8EFDDC82FE5
:10049000609170008C2FF2DD8C2FE8DD482F50E04A
:1004A00020917000332727FD30954217530781F0C4
:1004B00042E062E08AE01DDE10936200CF5F21F42B
:1004C00060E080E0DBDD04C06C2F80E8D7DDE0CFAA
:1004D0001092690080916E00882309F461C08091B8
:1004E00067008D278093670000936400F8948091E3
:1004F0006E008E7F80936E007894809167008111EA
:1005000049C080916800893F9CF0815080936800C9
:1005100080916A0018161CF4815080936A008091C3
:10052000700018161CF481508093700010926600C1
:10053000F89480916E008D7F80936E007894809106
:100540006800873004F58F5F8093680040916A00EF
:1005500080916F0090E0242F332727FD30952817D6
:1005600039071CF44F5F40936A0040917000242FBC
:10057000332727FD3095281739071CF44F5F409328
:10058000700010926600F89480916E008B7F8093CB
:100590006E0078948FE59AEE0197F1F700C00000A5
:1005A00080916000882309F46BCF809167008823D5
:1005B00021F0909164009130E9F59091630092955B
:1005C000990F907E8295807F892B909168009F7013
:1005D000892B8093620045E061E082E690E013DEC3
:1005E00080936300882329F043E063E082DD8AE0A2
:1005F00022C02091680080917300280F20936A0028
:1006000027FF03C010926A000CC040916F0033278F
:1006100027FD3095842F90E08217930714F44093C0
:100620006A001092660080917500809360001092BD
:10063000640026CF83E08093600022CFFB01DC01C1
:1006400002C005900D9241505040D8F70895F8949B
:02065000FFCFDA
:020652000100A5
:00000001FF
