:1000000018C032C031C045C02FC02EC02DC02CC07A
:100010002BC02AC029C07FC127C026C025C024C04C
:1000200023C0C8C82607230124733D0621012201ED
:100030003C0111241FBECFE5D1E0DEBFCDBF10E0F3
:10004000A0E6B0E0EAE1F9E002C005900D92A23628
:10005000B107D9F720E0A2E6B0E001C01D92A937B0
:10006000B207E1F770D257C4CBCFE199FECF90E051
:100070009FBB8EBBE09A8DB30895E199FECFF894B3
:100080001CBA90E09FBB8EBB6DBBE29AE19A78945C
:1000900008951F920F920FB60F9211248F938091A3
:1000A0006E0081110AC080916F00811106C086B375
:1000B000809587708093710002C0109271008F91BB
:1000C0000F900FBE0F901F901895882331F093E08A
:1000D0009A95F1F700008150F8CFA8950895009700
:1000E00049F0E7EAF1E63197F1F700C00000A89582
:1000F0000197F5CF0895FF920F931F93CF93DF934E
:10010000F82E062F10E0C42FD0E0D998FF2039F048
:10011000C801E5DFD99ACE01E2DFFA94F6CFDF918C
:10012000CF911F910F91FF9008958FB980E48EB900
:100130008BE18DB9769BFDCF8FB10895EF92FF9241
:100140001F93CF93DF9300D0CDB7DEB7142FDB988A
:1001500069837A83EADF6981E62E7A81F72E160FAA
:100160001E1531F08FEFE1DFF70181937F01F8CFAA
:10017000DB9A0F900F90DF91CF911F91FF90EF903E
:100180000895CF93DF931F92CDB7DEB7DB986983D5
:10019000CCDF6981862FC9DFDB9A0F90DF91CF9189
:1001A0000895EF92FF921F93CF93DF9300D0CDB7C6
:1001B000DEB7142FDB9869837A83B7DF6981E62E77
:1001C0007A81F72E160F1E1529F0F70181917F0114
:1001D000ACDFF9CFDB9A0F900F90DF91CF911F9199
:1001E000FF90EF900895DB98A0DFDB9A0895CF93FE
:1001F000C82F682F6E6780E2C4DFC0FF04C060E7CD
:1002000087E2BFDFDA9ACF9108950F931F93CF93C0
:10021000DF931F92CDB7DEB7482F062F60E787E246
:100220004983AFDF81EEDFDF498165E770E080EA77
:10023000B8DFDA9A11E08AE048DF8FEFD4DF982F39
:10024000907311F41F5FB9F7DA981123D1F0182FCA
:10025000107184FD18C086FF18C08FEF8093750061
:1002600041E065E770E080E669DF809175008132EA
:1002700070F4801760F0402F65E770E081E65EDF84
:1002800007C014E005C012E003C011E001C013E094
:10029000812F0F90DF91CF911F910F910895CF93F0
:1002A000C82F8093750042E050E062E270E086E77C
:1002B00090E028D343E065E770E08AE272DF43E034
:1002C00065E770E080E36DDF43E065E770E080E1C3
:1002D00035DF81E0909175009C1380E0CF91089507
:1002E000DA986CE780E24DCF1F93CF93DF93182FFE
:1002F000DB9AC4E2D0E0FE0184913196649141DF43
:100300002296F0E0C233DF07B1F7612F85E2DF917B
:10031000CF911F9136CF1F920F920FB60F921124DB
:100320002F933F934F938F939F9380916A008F5F9A
:100330008A3019F080936A000EC010926A00809192
:100340006000882319F081508093600080916200E2
:100350008F5F8093620080916400882339F0D99A7E
:10036000809164008150809364001AC08091630082
:10037000882329F0D9988091630081500FC0809123
:100380006500882369F093E0909363009093640084
:10039000815080936500811103C085E080936300E4
:1003A0008091740090917300891709F46CC02091BA
:1003B0006700211168C020916F00222361F08FEF48
:1003C000820F80936F0081115EC087B3909170009F
:1003D000892B87BB58C020916E00222309F43DC0B1
:1003E0008FEF820F80936E0081114DC097B3809183
:1003F00070008095892387BB90917000913061F4E3
:1004000080916B00892780936B008823E1F18091B4
:1004100073008093740037C080917300923011F4A0
:10042000815001C08F5F809373002091730012167A
:1004300024F081E0809373000CC040917200332758
:1004400027FD3095842F90E08217930714F4409392
:10045000730081E080936D0016C020916B00181628
:1004600024F02111D4CF81E007C02111FCCF8917DE
:1004700014F482E001C084E08093700082E08093F5
:100480006F0080936E009F918F914F913F912F91BC
:100490000F900FBE0F901F901895EF92FF920F9341
:1004A0001F93CF93DF931F92CDB7DEB78FE0DDDDD3
:1004B000883008F080E0182F1295110F107E80E12F
:1004C000F82EF10E00E041E0BE016F5F7F4F802FFC
:1004D00035DEEE24E394EF0C69818F2DCEDD0F5FC6
:1004E000083111F0FE2CEFCF41E0BE016F5F7F4F6E
:1004F0008CE124DE698188E2810FBFDD41E0BE012D
:100500006F5F7F4F8DE11ADE698189E2810FB5DD72
:10051000609162008AE2810FB0DD609168008BE239
:10052000810FABDD8FE0A1DD61E0680F683008F07E
:1005300067E08FE0A2DD0F90DF91CF911F910F91C7
:10054000FF90EF90089580E886BD93E096BD80E22D
:1005500085BF87B3887F87BB88B3887F88BB82E0ED
:100560008ABB81E88BBB8AB38C638ABB90BF8DE06A
:1005700083BF89B7816089BF81E686BF83E075DD6F
:10058000809372008F3F91F461B780E076DD60E187
:100590008FE073DD61E080E170DD67E083E06DDDB9
:1005A00065EE81E06ADD68E782E067DD8FE05DDDB2
:1005B000882369F05ADD80937300482F552747FD43
:1005C00050952091720030E0241735072CF480916B
:1005D00072008093730081E08093740082E045DDB7
:1005E00083DE8BB780628BBF80B5876080BD88E17A
:1005F00081BD8EE081BD789481E037DD50DE8111D0
:1006000005C044E162E381E076DDF6CF11E0C1E0B0
:10061000DEE10EEE8895A89580917100882309F49B
:10062000D5C08091710080FF0EC080916B00812742
:1006300080936B00811105C0809167008111109239
:100640006700C093690080916B00811152C0809156
:10065000710081FF19C080916C00893FACF081501E
:1006600080936C00F89480917400909173008230B4
:100670000CF0815080937400923024F490937300B6
:10068000789402C09150FACF8091710082FF90C09F
:1006900080916C0087300CF08BC08F5F80936C0072
:1006A000F8948091720090E0409174005091730032
:1006B00021E0652F2223C1F0242F332727FD309519
:1006C000281739070CF44F5F5F5F262F332727FD6C
:1006D00030952817390734F0409374006093730005
:1006E000789466C020E0E5CF409374005093730087
:1006F000F7CF80916700882379F18091710081FFA5
:1007000005C08091730081508093730080917100C7
:1007100082FF05C0809173008F5F809373002091EA
:10072000730012161CF0C09373000CC0409172004D
:10073000332727FD3095842F90E08217930714F418
:100740004093730045E065E080917300D4DCD09362
:100750006000C0936D002CC08091710081FD04C0C9
:100760008091710082FF24C080916E00811120C0B1
:1007700080916F0081111CC0D99A8AE090E0AFDCB3
:10078000809171008823A1F0A8958091710081FF6C
:10079000F7CF8091710082FFF3CFC093670042E0F2
:1007A00062E085E0A8DC8EE190E099DCD093600007
:1007B000D99A80917100882311F0A895FACF8BE423
:1007C0009DE10197F1F700C00000D99880916D007C
:1007D000882391F18FE049DCF82E882359F18F2D81
:1007E00044DC60917300482F50E0262F332727FD0B
:1007F000309542175307F1F08F2D3FDC8F2D35DCFC
:10080000482F50E020917300332727FD3095421781
:10081000530781F042E062E08AE06DDC00936600FD
:10082000F3946F2D8FE029DCF110D9CF42E062E024
:100830008AE061DC10926D00809160008111EACE47
:100840008091670081115BC080916B00882329F043
:1008500090916900913009F04FC0909166009E3EE2
:1008600071F0909168009295990F907E8295807FAB
:10087000892B90916C009F70892B809366008091EA
:1008800066008093750080E0B2DC64E081E0BDDC4E
:100890008093680002DE80916800882329F08093AD
:1008A000650084E0E2DB1CC0F89420916C0080912C
:1008B0007700280F2093740027FF03C01092740064
:1008C0000CC040917200332727FD3095842F90E0B3
:1008D0008217930714F44093740078948091780001
:1008E0008093600080916800823020F4109269004B
:1008F00010926600F5DC8ECEC09360008BCE109215
:10090000670088CEFB01DC0102C005900D924150CA
:0A0910005040D8F70895F894FFCF87
:02091A000A00D1
:00000001FF
