S0160000576972656C657373434F3246616E2E73726563E7
S113000019C033C032C046C030C02FC02EC02DC06E
S11300102CC02BC02AC078C128C027C026C025C048
S113002024C0C8C83D063C01230124412607210100
S11300302201310511241FBECFE5D1E0DEBFCDBFC3
S113004010E0A0E6B0E0E0E9F6E002C005900D9211
S1130050A236B107D9F720E0A2E6B0E001C01D92B4
S1130060A637B207E1F7C3D111C3CACFE199FECFD6
S113007090E09FBB8EBBE09A8DB30895E199FECFCB
S1130080F8941CBA90E09FBB8EBB6DBBE29AE19AD8
S1130090789408951F920F920FB60F9211248F93A4
S11300A080916B00882321F080916C00882321F0DB
S11300B086B3877080936E008F910F900FBE0F9060
S11300C01F901895882331F093E09A95F1F700007A
S11300D08150F8CFA8950895009749F0E7EAF1E632
S11300E03197F1F700C00000A8950197F5CF089566
S11300F0FF920F931F93CF93DF93F82E062F10E0F8
S1130100C42FD0E0D998FF2039F0C801E5DFD99A8F
S1130110CE01E2DFFA94F6CFDF91CF911F910F91D8
S1130120FF9008958FB980E48EB98BE18DB9769BE9
S1130130FDCF8FB10895EF92FF921F93CF93DF937A
S113014000D0CDB7DEB7142FDB9869837A83EADF5A
S11301506981E62E7A81F72E160F1E1531F08FEF86
S1130160E1DFF70181937F01F8CFDB9A0F900F90C5
S1130170DF91CF911F91FF90EF900895CF93DF937C
S11301801F92CDB7DEB7DB986983CCDF6981862FF8
S1130190C9DFDB9A0F90DF91CF910895EF92FF9220
S11301A01F93CF93DF9300D0CDB7DEB7142FDB9826
S11301B069837A83B7DF6981E62E7A81F72E160F79
S11301C01E1529F0F70181917F01ACDFF9CFDB9A8D
S11301D00F900F90DF91CF911F91FF90EF900895B2
S11301E0DB98A0DFDB9A0895CF93C82F682F6E6742
S11301F080E2C4DFC0FF04C060E787E2BFDFDA9AB1
S1130200CF9108950F931F93CF93DF931F92CDB790
S1130210DEB7482F062F60E787E24983AFDF81EE20
S1130220DFDF498161E770E080EAB8DFDA9A11E044
S11302308AE048DF8FEFD4DF982F907311F41F5FAB
S1130240B9F7DA981123D1F0182F107184FD18C072
S113025086FF18C08FEF8093710041E061E770E082
S113026080E669DF80917100813270F4801760F05C
S1130270402F61E770E081E65EDF07C012E005C051
S113028013E003C011E001C014E0812F0F90DF914F
S1130290CF911F910F910895CF93C82F8093710030
S11302A042E050E062E270E082E790E0E6D143E0B1
S11302B061E770E08AE272DF43E061E770E080E3C7
S11302C06DDF43E061E770E080E135DF81E090912C
S11302D071009C1380E0CF9108951F93CF93DF9317
S11302E0182FDB9AC4E2D0E0FE0184913196649128
S11302F045DF2296F0E0C433DF07B1F7612F85E2D2
S1130300DF91CF911F913ACF1F920F920FB60F92A8
S113031011242F938F939F93809165008F5F809317
S113032065008A3049F41092650080916100882349
S113033019F08150809361008091660081114FC053
S113034080916A0090917000891709F448C0209147
S11303506C00222361F08FEF820F80936C00811177
S11303603EC087B390916D00892B87BB38C0209124
S11303706B00222321F18FEF820F80936B00811198
S11303802EC097B380916D008095892387BB80919F
S11303906D00813019F480916A000BC0823021F421
S11303A080917000815005C0843029F480917000E0
S11303B08F5F8093700081E08093690010C0811189
S11303C002C081E005C0891714F482E001C084E012
S11303D080936D0082E080936C0080936B009F910A
S11303E08F912F910F900FBE0F901F90189580E85A
S11303F086BD93E096BD80E285BF87B3887F87BBC7
S113040088B3887F88BB82E08ABB81E88BBB8AB3D0
S11304108C638ABB90BF8DE083BF89B7816089BF3D
S113042081E686BFD99A83E021DE80936F008F3FF7
S113043091F461B780E022DE61E880E81FDE60E0CD
S113044081E81CDE67E083E019DE65EE81E016DEFC
S113045068E782E013DE80E809DE08DE809370003E
S113046082E004DE3ADF8BB780628BBF80B58760A1
S113047080BD88E181BD8EE081BD789481E0F6DDA8
S11304800BDF811105C044E162E381E031DEF6CF88
S113049080E0AADE11E00EEED1E08895A895809167
S11304A06900882329F180E8E1DDC82F609170009C
S11304B08C2FE4DD8C2FDADD482F50E02091700082
S11304C0332727FD30954217530781F042E062E05D
S11304D08AE00EDE00936200CF5F21F460E080E0EA
S11304E0CDDD04C06C2F80E8C9DDE0CF1092690037
S11304F080916E00882309F461C080916700812790
S113050080936700D0936400F89480916E008E7F8E
S113051080936E00789480916700811149C0809126
S11305206800893F9CF081508093680080916A0044
S113053018161CF4815080936A008091700018167C
S11305401CF481508093700010926600F89480919E
S11305506E008D7F80936E00789480916800873060
S113056004F58F5F8093680040916A0080916F006A
S113057090E0242F332727FD3095281739071CF4E2
S11305804F5F40936A0040917000242F332727FD6A
S11305903095281739071CF44F5F40937000109270
S11305A06600F89480916E008B7F80936E0078943F
S11305B08BE49DE10197F1F700C000008091610098
S11305C0882309F46ACFD99880916700882329F099
S11305D090916400913009F04DC0909162009111A6
S11305E00EC0909163009295990F907E8295807FC2
S11305F0892B909168009F70892B80936200809171
S113060062008093710065E081E0FCDD809363000B
S1130610882359F043E063E06BDD8AE090E05CDD21
S1130620809160008093610038CF10926200209125
S1130630680080917300280F20936A0027FF03C08D
S113064010926A000CC040916F00332727FD30954B
S1130650842F90E08217930714F440936A00109259
S11306606600809175008093610080936000109211
S1130670640013CFD093610010CFFB01DC0102C0F2
S113068005900D9241505040D8F70895F894FFCF4B
S10506900A0159
S9030000FC
