:1000000018C027C026C03AC024C023C022C021C0C7
:1000100020C01FC01EC079C11CC01BC01AC019C09F
:1000200018C0C8C82607230124733D0621012201F8
:100030003C0111241FBECFE5D1E0DEBFCDBF20E0E3
:10004000A0E6B0E001C01D92A837B207E1F722D2C6
:100050003DC4D6CFE199FECF90E09FBB8EBBE09A26
:100060008DB30895E199FECFF8941CBA90E09FBB40
:100070008EBB6DBBE29AE19A789408951F920F921D
:100080000FB60F9211248F9380916D0081110AC0D9
:1000900080916E00811106C086B380958770809331
:1000A000700002C0109270008F910F900FBE0F90E1
:1000B0001F901895882331F093E09A95F1F700008E
:1000C0008150F8CFA8950895009749F0E7EAF1E646
:1000D0003197F1F700C00000A8950197F5CF08957A
:1000E000FF920F931F93CF93DF93F82E062F10E00C
:1000F000C42FD0E0D998FF2039F0C801E5DFD99AA4
:10010000CE01E2DFFA94F6CFDF91CF911F910F91EC
:10011000FF9008958FB980E48EB98BE18DB9769BFD
:10012000FDCF8FB10895EF92FF921F93CF93DF938E
:1001300000D0CDB7DEB7142FDB9869837A83EADF6E
:100140006981E62E7A81F72E160F1E1531F08FEF9A
:10015000E1DFF70181937F01F8CFDB9A0F900F90D9
:10016000DF91CF911F91FF90EF900895CF93DF9390
:100170001F92CDB7DEB7DB986983CCDF6981862F0C
:10018000C9DFDB9A0F90DF91CF910895EF92FF9234
:100190001F93CF93DF9300D0CDB7DEB7142FDB983A
:1001A00069837A83B7DF6981E62E7A81F72E160F8D
:1001B0001E1529F0F70181917F01ACDFF9CFDB9AA1
:1001C0000F900F90DF91CF911F91FF90EF900895C6
:1001D000DB98A0DFDB9A0895CF93C82F682F6E6756
:1001E00080E2C4DFC0FF04C060E787E2BFDFDA9AC5
:1001F000CF910895FF920F931F93CF93DF931F9298
:10020000CDB7DEB7482F162F60E787E24983AEDF10
:1002100081EEDEDF498164E770E080EAB7DFDA9AD9
:1002200001E08AE047DF8FEFD3DFF82E807311F40F
:100230000F5FB9F7DA98002321F141E064E770E03D
:1002400087E171DFF6FC04C08091740080FD15C069
:100250008FEF8093740041E064E770E080E663DF35
:1002600080917400813278F4811768F0412F64E73F
:1002700070E081E658DF80E009C0F4FE06C082E04D
:1002800005C084E003C083E001C081E00F90DF91EE
:10029000CF911F910F91FF900895CF93C82F809316
:1002A000740042E050E062E270E085E790E005D340
:1002B00043E064E770E08AE269DF43E064E770E00E
:1002C00080E364DF43E064E770E080E12CDF81E0FD
:1002D000909174009C1380E0CF9108951F93CF9369
:1002E000DF93182FDB9AC4E2D0E0FE0184913196AF
:1002F00064913CDF2296F0E0C233DF07B1F7612F53
:1003000085E2DF91CF911F9131CF1F920F920FB6EF
:100310000F9211242F933F934F938F939F9380912C
:1003200069008F5F8A3019F0809369000EC01092C7
:10033000690080916700882319F0815080936700DD
:10034000809168008F5F80936800809161008823AE
:1003500039F0D99A809161008150809361001AC070
:1003600080916000882329F0D998809160008150A5
:100370000FC080916200882369F093E09093600041
:1003800090936100815080936200811103C085E0E9
:100390008093600090916A00923008F071C0809163
:1003A000730020917200821709F46AC030916400D2
:1003B000311166C030916E00332361F08FEF830FEF
:1003C00080936E0081115CC087B390916F00892B80
:1003D00087BB56C030916D00332309F43DC08FEFC9
:1003E000830F80936D0081114BC097B380916F0094
:1003F0008095892387BB90916F00913061F4809143
:100400006A00892780936A008823D1F18091720065
:100410008093730035C080917200923011F4815046
:1004200001C08F5F8093720020917200121624F039
:1004300081E0809372000CC040917100332727FD4A
:100440003095842F90E08217930714F44093720044
:1004500081E080936C0014C0181624F09111D6CF5F
:1004600081E007C09111FCCF821714F482E001C033
:1004700084E080936F0082E080936E0080936D0033
:100480009F918F914F913F912F910F900FBE0F90A1
:100490001F90189580E886BD93E096BD80E285BFE9
:1004A00087B3887F87BB88B3887F88BB82E08ABB9D
:1004B00081E88BBBDB9A8AB38C638ABB90BF8DE0EB
:1004C00083BF89B7816089BF81E686BF83E0C2DDD3
:1004D000809371008F3FA9F461B780E0C3DD65EEC2
:1004E00081E0C0DD68E782E0BDDD67E083E0BADD82
:1004F0006EE184E0B7DD60E28FE1B4DD61E080E2CF
:10050000B1DD8FE1A7DD882369F0A4DD809372005F
:10051000482F552747FD50952091710030E0241752
:1005200035072CF4809171008093720081E08093F4
:10053000730085E08FDD809367008BB780628BBF8F
:1005400080B5876080BD88E181BD8EE081BD7894F3
:1005500041E061E081E0C4DD82E07CDDBFDE81E07E
:1005600079DD9BDE811105C044E162E381E0B8DD05
:10057000F6CF80E031DEC1E0DEE11EEE8895A89581
:1005800080917000882309F4EAC08091700080FF98
:100590001BC080916A00882349F010926A00809104
:1005A0006400882379F0109264000CC082E080938C
:1005B0006A0010926D0010926E0087B3897F87BB2E
:1005C00010926700C093660080916A00811152C04A
:1005D0008091700081FF19C080916B00893FACF061
:1005E000815080936B00F894809173009091720019
:1005F00082300CF0815080937300923024F49093F9
:100600007200789402C09150FACF8091700082FFFE
:100610008EC080916B0087300CF089C08F5F809313
:100620006B00F8948091710090E0409173005091BC
:10063000720021E0652F2223C1F0242F332727FDEC
:100640003095281739070CF44F5F5F5F262F33274B
:1006500027FD30952817390734F0409373006093D5
:100660007200789464C020E0E5CF4093730050930B
:100670007200F7CF90916400992379F18091700016
:1006800081FF05C08091720081508093720080913B
:10069000700082FF05C0809172008F5F80937200AE
:1006A0002091720012161CF0C09372000CC0409191
:1006B0007100332727FD3095842F90E08217930730
:1006C00014F44093720045E065E08091720008DD0B
:1006D000D0936700C0936C002AC0823041F58091AE
:1006E0007000867021F180916D00811120C0809191
:1006F0006E0081111CC0D99A8AE090E0E5DC8091FF
:1007000070008823A1F0A8958091700081FFF7CF39
:100710008091700082FFF3CFC093640042E062E0FA
:1007200085E0DEDC8EE190E0CFDCD0936700D99AE3
:100730008BE49DE10197F1F700C0000086B390E0E3
:100740008095909587709927892B11F0A895F6CF01
:100750008BE49DE10197F1F700C00000D9988091EA
:100760006C00882391F18FE175DC082F882359F103
:10077000802F70DC60917200482F50E0262F3327C5
:1007800027FD309542175307F1F0802F6BDC802F47
:1007900061DC482F50E020917200332727FD30950F
:1007A0004217530781F042E062E08AE099DC10933F
:1007B00063000F5F602F8FE155DC0111D9CF42E05C
:1007C00062E08AE08DDC10926C00809167008111FC
:1007D000D5CE8091640081116DC020916A002230D5
:1007E00028F080916600813009F061C0809163003B
:1007F0008E3EA1F08091650090E035E0880F991F52
:100800003A95E1F7223011F420E101C020E0909107
:100810006B009F70982B922B9093630080916300E4
:100820008093740064E081E0E5DC809365008823B8
:1008300029F08093620084E00DDC2DC0809174006B
:10084000909175008F3E9D4F51F46091770080919B
:10085000760008DC42E062E087E042DCECCFF8940E
:1008600020916B0080917600280F2093730027FF62
:1008700003C0109273000CC040917100332727FD14
:100880003095842F90E08217930714F440937300FF
:100890007894809177008093670080916500823022
:1008A00008F06CCE109266001092630067CEC09381
:1008B000670064CE1092640061CEFB01DC0102C0CF
:1008C00005900D9241505040D8F70895F894FFCF0D
:00000001FF
