:1000000018C032C031C045C02FC02EC02DC02CC07A
:100010002BC02AC029C07FC127C026C025C024C04C
:1000200023C0C8C82607230124413D06210122011F
:100030003C0111241FBECFE5D1E0DEBFCDBF10E0F3
:10004000A0E6B0E0E2E6F8E002C005900D92A2362C
:10005000B107D9F720E0A2E6B0E001C01D92A837B1
:10006000B207E1F714D2FBC3CBCFE199FECF90E00A
:100070009FBB8EBBE09A8DB30895E199FECFF894B3
:100080001CBA90E09FBB8EBB6DBBE29AE19A78945C
:1000900008951F920F920FB60F9211248F938091A3
:1000A0006D0081110AC080916E00811106C086B377
:1000B000809587708093700002C0109270008F91BD
:1000C0000F900FBE0F901F901895882331F093E08A
:1000D0009A95F1F700008150F8CFA8950895009700
:1000E00049F0E7EAF1E63197F1F700C00000A89582
:1000F0000197F5CF0895FF920F931F93CF93DF934E
:10010000F82E062F10E0C42FD0E0D998FF2039F048
:10011000C801E5DFD99ACE01E2DFFA94F6CFDF918C
:10012000CF911F910F91FF9008958FB980E48EB900
:100130008BE18DB9769BFDCF8FB10895EF92FF9241
:100140001F93CF93DF9300D0CDB7DEB7142FDB988A
:1001500069837A83EADF6981E62E7A81F72E160FAA
:100160001E1531F08FEFE1DFF70181937F01F8CFAA
:10017000DB9A0F900F90DF91CF911F91FF90EF903E
:100180000895CF93DF931F92CDB7DEB7DB986983D5
:10019000CCDF6981862FC9DFDB9A0F90DF91CF9189
:1001A0000895EF92FF921F93CF93DF9300D0CDB7C6
:1001B000DEB7142FDB9869837A83B7DF6981E62E77
:1001C0007A81F72E160F1E1529F0F70181917F0114
:1001D000ACDFF9CFDB9A0F900F90DF91CF911F9199
:1001E000FF90EF900895DB98A0DFDB9A0895CF93FE
:1001F000C82F682F6E6780E2C4DFC0FF04C060E7CD
:1002000087E2BFDFDA9ACF9108950F931F93CF93C0
:10021000DF931F92CDB7DEB7482F062F60E787E246
:100220004983AFDF81EEDFDF498164E770E080EA78
:10023000B8DFDA9A11E08AE048DF8FEFD4DF982F39
:10024000907311F41F5FB9F7DA981123D1F0182FCA
:10025000107184FD18C086FF18C08FEF8093740062
:1002600041E064E770E080E669DF809174008132EC
:1002700070F4801760F0402F64E770E081E65EDF85
:1002800007C014E005C012E003C011E001C013E094
:10029000812F0F90DF91CF911F910F910895CF93F0
:1002A000C82F8093740042E050E062E270E085E77E
:1002B00090E0CCD243E064E770E08AE272DF43E092
:1002C00064E770E080E36DDF43E064E770E080E1C5
:1002D00035DF81E0909174009C1380E0CF91089508
:1002E000DA986CE780E24DCF1F93CF93DF93182FFE
:1002F000DB9AC4E2D0E0FE0184913196649141DF43
:100300002296F0E0C233DF07B1F7612F85E2DF917B
:10031000CF911F9136CF1F920F920FB60F921124DB
:100320002F933F934F938F939F93809169008F5F9B
:10033000809369008A3049F41092690080916000CE
:10034000882319F081508093600080916300882396
:1003500039F0D99A809163008150809363001AC06C
:1003600080916200882329F0D998809162008150A1
:100370000FC080916400882369F093E0909362003D
:1003800090936300815080936400811103C085E0E5
:10039000809362008091730090917200891709F434
:1003A0006CC020916600211168C020916E0022234C
:1003B00061F08FEF820F80936E0081115EC087B372
:1003C00090916F00892B87BB58C020916D0022232C
:1003D00009F43DC08FEF820F80936D0081114DC0F5
:1003E00097B380916F008095892387BB90916F00B0
:1003F000913061F480916A00892780936A00882394
:10040000E1F1809172008093730037C08091720097
:10041000923011F4815001C08F5F8093720020915F
:100420007200121624F081E0809372000CC040919B
:100430007100332727FD3095842F90E082179307B2
:1004400014F44093720081E080936C0016C02091F8
:100450006A00181624F02111D4CF81E007C02111C1
:10046000FCCF891714F482E001C084E080936F0010
:1004700082E080936E0080936D009F918F914F91E9
:100480003F912F910F900FBE0F901F90189580E80D
:1004900086BD93E096BD80E285BF87B3887F87BB2A
:1004A00088B3887F88BB82E08ABB81E88BBB8AB334
:1004B0008C638ABB90BF8DE083BF89B7816089BFA1
:1004C00081E686BF83E0D1DD809371008F3F91F498
:1004D00061B780E0D2DD61E880E8CFDD60E081E8EF
:1004E000CCDD67E083E0C9DD65EE81E0C6DD68E76D
:1004F00082E0C3DD80E8B9DD882331F0B6DD80938A
:1005000073008093720007C0809171008093720025
:1005100081E08093730082E0A8DDE6DE8BB7806225
:100520008BBF80B5876080BD88E181BD8EE081BDD5
:10053000789481E09ADDB3DE811105C044E162E385
:1005400081E0D9DDF6CF11E0C1E0DEE10EEE889565
:10055000A89580917000882309F4D5C0809170001F
:1005600080FF0EC080916A00812780936A0081110C
:1005700005C080916600811110926600C0936800EA
:1005800080916A00811152C08091700081FF19C072
:1005900080916B00893FACF0815080936B00F894A0
:1005A000809173009091720082300CF081508093A2
:1005B0007300923024F490937200789402C09150AA
:1005C000FACF8091700082FF90C080916B008730DD
:1005D0000CF08BC08F5F80936B00F894809171005A
:1005E00090E0409173005091720021E0652F22232A
:1005F000C1F0242F332727FD3095281739070CF435
:100600004F5F5F5F262F332727FD30952817390767
:1006100034F04093730060937200789466C020E0D9
:10062000E5CF4093730050937200F7CF809166003E
:10063000882379F18091700081FF05C0809172005C
:100640008150809372008091700082FF05C080917C
:1006500072008F5F809372002091720012161CF05E
:10066000C09372000CC040917100332727FD309574
:10067000842F90E08217930714F44093720045E0B2
:1006800065E08091720037DDD0936000C0936C000C
:100690002CC08091700081FD04C08091700082FFA9
:1006A00024C080916D00811120C080916E00811165
:1006B0001CC0D99A8AE090E012DD809170008823F6
:1006C000A1F0A8958091700081FFF7CF8091700014
:1006D00082FFF3CFC093660042E062E085E00BDD6D
:1006E0008EE190E0FCDCD0936000D99A809170009C
:1006F000882311F0A895FACF8BE49DE10197F1F7DB
:1007000000C00000D99880916C00882391F180E8A6
:10071000ACDCF82E882359F18F2DA7DC6091720094
:10072000482F50E0262F332727FD309542175307D7
:10073000F1F08F2DA2DC8F2D98DC482F50E0209116
:100740007200332727FD30954217530781F042E0AE
:1007500062E08AE0D0DC00936500F3946F2D80E8BE
:100760008CDCF110D9CF42E062E08AE0C4DC109268
:100770006C00809160008111EACE80916600811149
:1007800062C08091650020916A008E3E79F0909160
:1007900067009295990F907E822F8295807F892B9A
:1007A00090916B009F70892B80936500222311F03C
:1007B0008FEF05C080916B00813021F487E113DD5C
:1007C00080936500809165008093740080E00FDD68
:1007D00064E081E01ADD80936700882339F080931C
:1007E000640084E042DC8093600023C0F894209190
:1007F0006B0080917600280F2093730027FF03C0C1
:10080000109273000CC040917100332727FD309582
:10081000842F90E08217930714F440937300789428
:1008200080917700809360004AE065E080917300DA
:1008300062DC80916700823020F410926800109290
:1008400065004EDD84CE1092660081CEFB01DC0196
:1008500002C005900D9241505040D8F70895F89489
:02086000FFCFC8
:020862000A008A
:00000001FF
